:030000000200CE2D
:0C00CE00787FE4F6D8FD7581080200E69A
:0C00DA0068656C6C6F20776F7264210009
:0F00BF001200477BFF7A0079DAE4FDFF0200941C
:0500E6001200BF80FEC6
:0700030012007D7F057E0065
:0A000A00EF1FAC0670011E4C6012DF
:10001400E4F508E508C394FA50EC00000000050874
:0200240080F169
:0100260022B7
:10007D00C2A0C2A1C2A200008F8000000000D2A2C7
:07008D0000000000C2A222E6
:1000AA00D2A0C2A1C2A28F8000000000D2A200008A
:0500BA000000C2A222BB
:10002700EF70047F808013BF01047F90800CBF02B4
:10003700047F888005BF03027F98EF2DFF02007DB4
:10004700D2A37F341200037F301200037F0C12000B
:0D005700037F0112007D7F057E0002000A7C
:10009400120027120064FF600C1200AA740129F9EF
:0600A400E43AFA80EE22AE
:10006400BB010689828A83E0225002E722BBFE029A
:09007400E32289828A83E49322CD
:00000001FF
