:03000000020B4EA2
:0C0B4E00787FE4F6D8FD758139020B9524
:1010F500B4A2B4E6D6D000B5DA2020CCF5001304AE
:0E1105000E173B37010101010101010000003E
:100F9A00C100011600031A0A0A0A03170000000218
:030FAA0014000030
:1011FC00438901758A17758CFCC28DD28CD2AFD203
:02120C00A92215
:100D470078217C007D007BFF7A1179037E007F0389
:100D570012023D78247C007D007BFF7A1179067EA4
:100D6700007F0312023D1211FC1211131211A07B16
:100D7700007A007921120EBE7B007A007924120EC8
:100D8700ED7FB87E0B1210D57F011211B912121D1B
:030D9700020FC088
:08000300EF1475F015A4FF22B3
:100E1B008F251212297BFF7A1079F5E4FDFF121151
:100E2B00307BFF7A1079FCE4FD7F011211307D01DC
:100E3B007F01120F1CE5252431FF1211E77FE87E9D
:070E4B00031210D502122969
:020914008F232F
:10091600E4F52412000312102D8F240524E524B4D7
:100926000303E4F524AF23120003AD241211D07F94
:10093600147E001210D5AF23120003EF04FFE52446
:1009460075F007A42FFFAD171211D07F147E001289
:1009560010D5AF23120003EF2402FFE52475F0073C
:10096600A42FFFAD181211D07F147E001210D5AF40
:1009760023120003EF2403FFE52475F007A42FFFDD
:10098600AD191211D07F147E001210D5AF231200BC
:1009960003EF2404FFE52475F007A42FFFAD1A1218
:1009A60011D07F147E001210D5AF23120003EF245E
:1009B60005FFE52475F007A42FFFC007E50FFFE547
:1009C6000EFEE4FDFC7808120301AD07D0071211F4
:1009D600D07F147E001210D5AF23120003EF240639
:1009E600FFE52475F007A42FFFC007E50FFFE4AD70
:1009F60007D0071211D07F147E001210D5AF240243
:020A06000E1BC5
:100C9800752101E4F522120E52052220B2167F14A6
:100CA8007E001210D520B20C30B2FD0521E521B42A
:100CB8000402801520B3187F147E001210D520B3CB
:100CC8000E30B3FDAF21120914121229020FC0E52C
:100CD80022B4C8C57D047F01120F1CE5212430FF12
:080CE8001211E7E4F52280B1CE
:0207E9008F235C
:1007EB0078247C007D007BFF7A1179097E007F07DE
:1007FB0012023D782B7C007D007BFF7A1179107EF5
:10080B00007F0312023DE4F52EF52FF52EAF2312D8
:10081B000003E52E2FFFE52F75F007A42FFF121015
:10082B002D7424252EF8A6077F147E001210D505F3
:10083B002EE52EC3940740D57B007A007924852FB3
:10084B0034AD231203F620B4537F147E001210D55F
:10085B0020B44930B4FD052FE52FB40303E4F52F85
:10086B00E4F52EAF23120003E52E2FFFE52F75F0D5
:10087B0007A42FFF12102D7424252EF8A6077F1422
:10088B007E001210D5052EE52EC3940740D57B00B4
:10089B007A007924852F34AD231203F620B5537FCC
:1008AB00147E001210D520B54930B5FD152FE52F5C
:1008BB00B4FF03752F02E4F52EAF23120003E52ED0
:1008CB002FFFE52F75F007A42FFF12102D74242591
:1008DB002EF8A6077F147E001210D5052EE52EC329
:1008EB00940740D57B007A007924852F34AD2312F1
:1008FB0003F630B3030208517F147E001210D5307B
:08090B00B30302085130B3FDF3
:0109130022C1
:100CF000E4F521752201120E880521E521B4C81200
:100D00007D047F01120F1CE5222430FF1211E7E45D
:100D1000F52120B2167F147E001210D520B20C30BF
:100D2000B2FD0522E522B40402801520B3CB7F1466
:100D30007E001210D520B3C130B3FDAF221207E9F7
:060D4000121229120FC07F
:010D4600228A
:100C3C00120D4730002E7B007A0079171210937B2F
:100C4C00007A00791A121072752400752500752629
:100C5C001A7B007A0079171206B9120AB6120BDA4F
:100C6C00B297C20020B2107F0A7E001210D520B2BB
:100C7C000630B2FD120C9820B3B97F0A7E00121018
:0C0C8C00D520B3AF30B3FD120CF080A7F0
:03000B00020F736E
:040F7300C0E0C0D04A
:100F7700758A17758CFC0515E51570020514B42CD8
:0E0F87000DE514B40108751400751500D200B4
:050F9500D0D0D0E032D5
:070FE6001211B97F057E0026
:0A0FED00EF1FAC0670011E4C6012ED
:100FF700E4F539E539C394FA50EC000000000539EF
:0210070080F176
:0110090022C4
:1011B900C2A0C2A1C2A200008F8000000000D2A27A
:0711C90000000000C2A22299
:1011E700D2A0C2A1C2A28F8000000000D2A200003C
:0511F7000000C2A2226D
:100F1C00EF70047F808013BF01047F90800CBF02B0
:100F2C00047F888005BF03027F98EF2DFF1211B953
:0C0F3C00000000000000000000000000A9
:010F48002286
:10111300D2A37F34120FE67F30120FE67F0C120F3B
:0D112300E67F011211B97F057E00020FED7D
:10113000120F1C120263FF60131211E77F017E0081
:0D114000120FED740129F9E43AFA80E7225C
:10116A00C292E4FEEF30E004D2938002C293D2929C
:0A117A00C292EFC313FF0EBE08EA95
:011184002248
:10118500E4FFFEEFC313FF3093054307808003534D
:0A119500077FD292C2920EBE08E955
:01119F00222D
:020F4900AE07F1
:100F4B00C294C292D2945306FEAF0612116AED758B
:100F5B00F00A84C454F0FFED75F00A84E5F04FFFFE
:070F6B0012116AC293C29447
:010F7200225C
:10105000C294C292D29443070112116A121185EF11
:10106000C4540F75F00AA4FEEF540F2EFFC293C2B2
:0110700094EB
:01107100225C
:100EBE00E4FD7F8E120F4990000212027CFD7F86A8
:100ECE00120F4990000112027CFD7F88120F491209
:0F0EDE000263FD7F8C120F497D807F8E020F49CA
:100EED00E4FD7F8E120F4990000212027CFD7F807F
:100EFD00120F4990000112027CFD7F82120F4912E0
:0F0F0D000263FD7F84120F497D807F8E020F49A2
:101072007F84121050EF1202A97F8212105090004A
:1010820001EF1202BB7F80121050900002EF0202A9
:01109200BBA2
:101093007F8C121050EF1202A97F8812105090001B
:1010A30001EF1202BB7F86121050900002EF020282
:0110B300BB81
:100FAD00041000000000040800000000040C000004
:020FBD00000032
:0312460000002283
:100DDE00D2A7121246C2A67F007E007D007C0020A4
:100DEE00A7FDE4FBD2A67801120315C2A630A70D0B
:100DFE00EF2401FFE43EFEE43DFDE43CFC0BBB189A
:0C0E0E00E3D2A6ED6480FD121246C2A6DD
:010E1A0022B5
:100BDA00120DDE8F0F8E0E8D0D8C0CC3E50F950B4B
:100BEA00F50FE50E950AF50EE50D9509F50DE50CDF
:100BFA009508F50CE4FFFEFDFCAB0FAA0EA90DA8A3
:100C0A000CD31202EB4021AF0FAE0EAD0DAC0CECC3
:100C1A001200AE7B007A8079DA7843120011120052
:100C2A00ECE48F0F8E0E8005E4F50FF50EF50DF549
:020C3A000C228A
:0C121D00120DDE8F0B8E0A8D098C08224A
:1010D500E4FDFCC3ED9FEC9E5015E4FBFA0BBB0051
:0F10E500010AEB647B4A70F50DBD00010C80E43D
:0110F40022D9
:06123F0000007F09DFFE44
:011245002286
:0F120E00D295D29612123FC29512123FC296226B
:0A123500C295D29612123FD2952204
:0B100A001210B4121015AF041210B445
:10101500D29512123FD29612123F309507C2961200
:081025001235C322C296D3224A
:0210B400AE0785
:1010B600E4FDEE30E704D2958002C29512123FD2CB
:0E10C60096EE25E0FE12123FC2960DBD08E424
:0110D40022F9
:10114D00E4FDD29612123FEE25E0FE3095034306E4
:0C115D0001C29612123F0DBD08E8AF065B
:011169002263
:1011D000AC05AB0712120E7FA01210B4121015AF9F
:0711E0000312100A02123590
:02102D00AC070E
:10102F0012120E7FA012100A12123512120E7FA189
:10103F001210B412101512114DAE07121235AF0661
:01104F00227E
:100A0800D6D8C1BF3A2020202020670044617465F1
:100A18003A2032300054696D653A004B31B4A2B4C3
:100A2800E6202020204B32B2E9D1AF00BBB6D3ADCF
:100A3800CAB9D3C3A3A100D6C7C4DCB5E7D7D3B31B
:100A4800D300C7EBD1A1D4F1D2AAB4A2B4E6B5C4FD
:100A5800D3C300BBA7A3BAD3C3BBA7004B31A3BA68
:100A6800CFC2D2BBD2B3004B32A3BAC8B7C8CF00EB
:100A7800C7EBD1A1D4F1D2AAB2E9BFB4B5C4D3C3EC
:100A880000D3C3BBA7202020202020C9CF2020B41A
:100A9800CE00B1BEB4CEB3C6D6D8A3BA00C9CFB4BF
:0E0AA800CEB3C6D6D8A3BA00323000CAB10011
:100AB6007BFF7A0A7908E4FD7F021211307D037FFD
:100AC60002120F1CE47BE87A03F9F8AF0FAE0EAD05
:100AD6000DAC0C120D9AEF2430FF1211E7E47BE8FF
:100AE6007A03F9F8AF0FAE0EAD0DAC0C120D9AAC41
:100AF60000AD01AE02AF03E47B64FAF9F8120D9A79
:100B0600EF2430FF1211E7E47B64FAF9F8AF0FAE79
:100B16000EAD0DAC0C120D9AAC00AD01AE02AF03DA
:100B2600E47B0AFAF9F8120D9AEF2430FF1211E766
:100B3600E47B0AFAF9F8AF0FAE0EAD0DAC0C120D50
:080B46009AEB2430FF0211E7D5
:0C1229007F011211B97F0A7E00020FED58
:100FC0007BFF7A0A7914E4FDFF1211307BFF7A0A65
:100FD000791DE4FD7F011211307BFF7A0A7923E449
:060FE000FD7F0302113049
:1006B9008B218A2289237D04E4FF120F1CAB21AA16
:1006C90022A92312026375F00A842430FF1211E76C
:1006D900AB21AA22A92312026375F00A84E5F0244A
:1006E90030FF1211E77F2F1211E7AB21AA22A923AC
:1006F90090000112027C75F00A842430FF1211E780
:10070900AB21AA22A92390000112027C75F00A8468
:10071900E5F02430FF1211E77F2F1211E7AB21AA70
:1007290022A92390000212027C75F00A842430FF6A
:100739001211E7AB21AA22A92390000212027C75AB
:10074900F00A84E5F02430FF1211E77D037F0112DE
:100759000F1CAB24AA25A92612026375F00A84246A
:1007690030FF1211E7AB24AA25A92612026375F0FE
:100779000A84E5F02430FF1211E77F3A1211E7AB42
:1007890024AA25A92690000112027C75F00A842466
:1007990030FF1211E7AB24AA25A926900001120205
:1007A9007C75F00A84E5F02430FF1211E77F3A12D4
:1007B90011E7AB24AA25A92690000212027C75F044
:1007C9000A842430FF1211E7AB24AA25A926900038
:1007D9000212027C75F00A84E5F02430FF0211E769
:1011A0007BFF7A0A7934E4FDFF1211307BFF7A0A63
:0911B000793FE4FD7F01021130DA
:100E52001212297BFF7A0A794AE4FDFF1211307BD4
:100E6200FF7A0A795BE4FD7F011211307BFF7A0A77
:100E72007964E4FD7F021211307BFF7A0A796FE414
:060E8200FD7F03021130A8
:100E88001212297BFF7A0A7978E4FDFF1211307B70
:100E9800FF7A0A795BE4FD7F011211307BFF7A0A41
:100EA8007964E4FD7F021211307BFF7A0A796FE4DE
:060EB800FD7F0302113072
:0803F6008B308A3189328D330E
:1003FE00E4F538F537F536F5351212297BFF7A0A12
:10040E007989E4FDFF1211307BFF7A0A799AE4FDB7
:10041E007F021211307BFF7A0A79A5E4FD7F031269
:10042E0011307BFF7A0A79B0E4FD7F011211307D25
:10043E0002E4FF120F1CE5332430FF1211E77D0694
:10044E00E4FF120F1CE534042430FF1211E7E4FD23
:10045E007F01120F1C7F321211E77F301211E7ABB2
:10046E0030AA31A93290000112027C75F00A842460
:10047E0030FF1211E7AB30AA31A9329000011202FF
:10048E007C75F00A84E5F02430FF1211E77F2F12FD
:10049E0011E7AB30AA31A93290000212027C75F03E
:1004AE000A842430FF1211E7AB30AA31A932900032
:1004BE000212027C75F00A84E5F02430FF1211E777
:1004CE007F2F1211E7AB30AA31A93290000312022E
:1004DE007C75F00A842430FF1211E7AB30AA31A9E3
:1004EE003290000312027C75F00A84E5F02430FF8E
:1004FE001211E77D067F01120F1CAB30AA31A93213
:10050E0090000412027C75F00A842430FF1211E769
:10051E00AB30AA31A93290000412027C75F00A8425
:10052E00E5F02430FF1211E77BFF7A0A79B37D07DD
:10053E007F011211307D057F02120F1CE47BE87AD9
:10054E0003F9F8AF0FAE0EAD0DAC0C120D9AEF24F1
:10055E0030FF1211E7E47BE87A03F9F8AF0FAE0E25
:10056E00AD0DAC0C120D9AAC00AD01AE02AF03E4B2
:10057E007B64FAF9F8120D9AEF2430FF1211E7E4BA
:10058E007B64FAF9F8AF0FAE0EAD0DAC0C120D9AEE
:10059E00AC00AD01AE02AF03E47B0AFAF9F8120D1E
:1005AE009AEF2430FF1211E7E47B0AFAF9F8AF0F45
:1005BE00AE0EAD0DAC0C120D9AEB2430FF1211E7FE
:1005CE007F671211E7AB30AA31A9329000051202F3
:1005DE007CFFE5384FF538E537F537E536F536E586
:1005EE0035F53590000612027CFFE4FCFDFEC004DA
:1005FE00C005C006C007AF38AE37AD36AC3578088B
:10060E00120315D003D002D001D000EF4BF538EE17
:10061E004AF537ED49F536EC48F5357D057F031281
:10062E000F1CE47BE87A03F9F8AF38AE37AD36AC81
:10063E0035120D9AEF2430FF1211E7E47BE87A03AE
:10064E00F9F8AF38AE37AD36AC35120D9AAC00AD09
:10065E0001AE02AF03E47B64FAF9F8120D9AEF24AF
:10066E0030FF1211E7E47B64FAF9F8AF38AE37AD1C
:10067E0036AC35120D9AAC00AD01AE02AF03E47B81
:10068E000AFAF9F8120D9AEF2430FF1211E7E47B03
:10069E000AFAF9F8AF38AE37AD36AC35120D9AEB23
:0B06AE002430FF1211E77F670211E704
:10000E00020162EC5D046005E859047003020158B8
:10001E00120123580460F6EC4860F2EC7004FDFE09
:10002E00FF22C860DB2481C85009C39860025006C5
:10003E0002015F9850CAF582E9294B4A7005AB82DE
:10004E0002014E75F0007C1A7880C3EF9BEE9AED9C
:10005E0099400DC3EF9BFFEE9AFEED99FDE842F03D
:10006E00DC23ACF0D0E0FFD0E0FED0E0FDAB822090
:10007E00E7101BEB60BAEC2CFCEF33FFEE33FEED1A
:10008E0033FD02013AE803F830E705C0F075F000E1
:10009E00EF2FFFEE33FEED33FD40B830E7C280AAFE
:1000AE0075F020800E75F010800575F0087D007ECD
:1000BE00007F003392D530D5031202DDEC334010B1
:1000CE00EF33FFEE33FEED33FDEC33FCD5F0ED22D6
:0E00DE00E5F0247EA2D513CC92E7CDCEFF2212
:1000EC00EDD2E7CD33EC3392D524814006E4FFFE0C
:1000FC00FDFC22FCE4CFCECDCC24E0501174FF806B
:10010C00EDC3CC13CCCD13CDCE13CECF13CF047007
:07011C00F030D5DE0202DD28
:10012300E9D2E7C933E833F892D5EDD2E7CD33EC22
:0701330033FC5002B2D5229B
:10013A00EC30E7100FBF000C0EBE00080DBD000426
:10014A000BEB6014A2D5EB13FCED92E7FD2274FFD2
:10015A00FCFDFEFF22E480F8A2D574FF13FC7D802B
:03016A00E480EF3F
:100B5A00020C3CE493A3F8E493A34003F68001F269
:100B6A0008DFF48029E493A3F85407240CC8C3339C
:100B7A00C4540F4420C8834004F456800146F6DF6B
:100B8A00E4800B0102040810204080900F9AE47E52
:100B9A00019360BCA3FF543F30E509541FFEE49360
:100BAA00A360010ECF54C025E060A840B8E493A327
:100BBA00FAE493A3F8E493A3C8C582C8CAC583CA52
:100BCA00F0A3C8C582C8CAC583CADFE9DEE780BE0A
:010FBF000031
:10016D00E709F608DFFA8046E709F208DFFA803E74
:10017D0088828C83E709F0A3DFFA8032E309F60861
:10018D00DFFA8078E309F208DFFA807088828C83C9
:10019D00E309F0A3DFFA806489828A83E0A3F6087D
:1001AD00DFFA805889828A83E0A3F208DFFA804C57
:1001BD0080D280FA80C680D4806980F2803380102E
:1001CD0080A680EA809A80A880DA80E280CA803397
:1001DD0089828A83ECFAE493A3C8C582C8CCC5830F
:1001ED00CCF0A3C8C582C8CCC583CCDFE9DEE780DF
:1001FD000D89828A83E493A3F608DFF9ECFAA9F05E
:10020D00EDFB2289828A83ECFAE0A3C8C582C8CCB3
:10021D00C583CCF0A3C8C582C8CCC583CCDFEADECC
:10022D00E880DB89828A83E493A3F208DFF980CC2E
:10023D0088F0EF60010E4E60C388F0ED2402B40427
:10024D000050B9F582EB2402B4040050AF232345CE
:06025D0082239001BD7335
:10026300BB010689828A83E0225002E722BBFE0299
:09027300E32289828A83E49322CC
:10027C00BB010CE58229F582E5833AF583E0225037
:10028C0006E92582F8E622BBFE06E92582F8E22281
:0D029C00E58229F582E5833AF583E493229B
:1002A900BB010689828A83F0225002F722BBFE0134
:0202B900F3222E
:1002BB00F8BB010DE58229F582E5833AF583E8F079
:1002CB00225006E92582C8F622BBFE05E92582C825
:0202DB00F2220D
:100D9A00C2D5E830E70FB2D5E4C39BFBE49AFAE484
:100DAA0099F9E498F8EC30E717B2D5120DD012038E
:100DBA0064E4C39BFBE49AFAE499F9E498F88003A3
:100DCA0012036430D50DE4C39FFFE49EFEE49DFD4B
:040DDA00E49CFC2277
:0E02DD00C3E49FFFE49EFEE49DFDE49CFC2232
:1002EB00EB9FF5F0EA9E42F0E99D42F0EC6480C88A
:0602FB0064809845F0222A
:10030100E86010ECA2E713FCED13FDEE13FEEF1312
:04031100FFD8F022FF
:10031500E8600FEFC333FFEE33FEED33FDEC33FC46
:03032500D8F122EA
:1003280075F008758200EF2FFFEE33FECD33CDCC8C
:1003380033CCC58233C5829BED9AEC99E58298400F
:100348000CF582EE9BFEED9AFDEC99FC0FD5F0D6EC
:10035800E4CEFBE4CDFAE4CCF9A88222B800C1B916
:100368000059BA002DEC8BF084CFCECDFCE5F0CB54
:10037800F97818EF2FFFEE33FEED33FDEC33FCEB8D
:1003880033FB10D703994004EB99FB0FD8E5E4F948
:10039800FA227818EF2FFFEE33FEED33FDEC33FC35
:1003A800C933C910D7059BE99A4007EC9BFCE99A29
:1003B800F90FD8E0E4C9FAE4CCFB2275F010EF2F6E
:1003C800FFEE33FEED33FDCC33CCC833C810D7076E
:1003D8009BEC9AE899400AED9BFDEC9AFCE899F8A9
:0E03E8000FD5F0DAE4CDFBE4CCFAE4C8F9223C
:00000001FF
