:030000000205AA4C
:0C05AA00787FE4F6D8FD75812C0205F185
:0C0B0A0013040E173B370A0A0A00000013
:060A4500C10002150000D3
:100AE900438901758A17758CFCC28DD28CD2AFD21D
:020AF900A92230
:1006F200780E7C007D007BFF7A0B790A7E007F03F7
:1007020012023D78117C007D007BFF7A0B790D7E11
:10071200007F0312023D120AE91209D5120A777B01
:10072200007A00790E1207F77B007A00791112081D
:10073200267FB87E0B1209B57F01120A90120B16A2
:03074200020A5E4A
:1006980078087C007D007BFF7A0B79107E007F0351
:1006A80012023D780B7C007D007BFF7A0B79137E6C
:1006B800007F0312023D1206F23000FD7B007A0033
:1006C800790B1209537B007A0079081209327511E7
:1006D800007512007513087B007A00790B1203E28B
:0A06E800120512120636C20080CF80
:03000B0002087F69
:04087F00C0E0C0D045
:10088300758A17758CFC0516E51670020515B42CD0
:0E0893000DE515B40108751500751600D200AC
:0508A100D0D0D0E032D0
:0708A600120A907F057E009D
:0A08AD00EF1FAC0670011E4C601234
:1008B700E4F514E514C394FA50EC000000000514A5
:0208C70080F1BE
:0108C900220C
:100A9000C2A0C2A1C2A200008F8000000000D2A2AA
:070AA00000000000C2A222C9
:100AD400D2A0C2A1C2A28F8000000000D2A2000056
:050AE4000000C2A22287
:10099500EF70047F808013BF01047F90800CBF023D
:1009A500047F888005BF03027F98EF2DFF020A9020
:1009D500D2A37F341208A67F301208A67F0C120816
:0D09E500A67F01120A907F057E000208AD7A
:100ABE00120995120263FF600C120AD4740129F90F
:060ACE00E43AFA80EE227A
:100A0F00C292E4FEEF30E004D2938002C293D292FE
:0A0A1F00C292EFC313FF0EBE08EAF7
:010A290022AA
:100A2A00E4FFFEEFC313FF309305430780800353AF
:0A0A3A00077FD292C2920EBE08E9B7
:010A4400228F
:02085500AE07EC
:10085700C294C292D2945306FEAF06120A0FED75E8
:10086700F00A84C454F0FFED75F00A84E5F04FFFF9
:07087700120A0FC293C294A4
:01087E002257
:10091000C294C292D294430701120A0F120A2AEF1C
:10092000C4540F75F00AA4FEEF540F2EFFC293C2F9
:010930009432
:0109310022A3
:1007F700E4FD7F8E12085590000212027CFD7F8671
:1008070012085590000112027CFD7F8812085512CC
:0F0817000263FD7F8C1208557D807F8E0208558D
:10082600E4FD7F8E12085590000212027CFD7F8047
:1008360012085590000112027CFD7F8212085512A3
:0F0846000263FD7F841208557D807F8E02085566
:100932007F84120910EF1202A97F8212091090001F
:1009420001EF1202BB7F80120910900002EF020237
:01095200BBE9
:100953007F8C120910EF1202A97F881209109000F0
:1009630001EF1202BB7F86120910900002EF020210
:01097300BBC8
:100A4B000429000000000421000000000425000020
:020A5B00000099
:030B2C00000022A4
:10078900D2A7120B2CC2A67F007E007D007C002020
:10079900A7FDE4FBD2A67801120301C2A630A70D7A
:1007A900EF2401FFE43EFEE43DFDE43CFC0BBB18F5
:0C07B900E3D2A6ED6480FD120B2CC2A65A
:0107C5002211
:100636001207898F288E278D268C25C3E5289524B9
:10064600F528E5279523F527E5269522F526E525C0
:100656009521F525E4FFFEFDFCAB28AA27A926A8CF
:1006660025D31202EB4021AF28AE27AD26AC25ECF0
:100676001200AE7B007A8079DA78431200111200FC
:10068600ECE48F288E278005E4F528F527F526F576
:0206960025221B
:0C0B16001207898F248E238D228C21224F
:1009B500E4FDFCC3ED9FEC9E5015E4FBFA0BBB0078
:0F09C500010AEB647B4A70F50DBD00010C80E464
:0109D4002200
:0600030000007F09DFFE92
:0100090022D4
:0F0AFB00D291D290120003C291120003C2902236
:0A0B2200C291D290120003D291227A
:0B08CA001209741208D5AF0412097463
:1008D500D291120003D290120003309107C29012F8
:0808E5000B22C322C290D322B2
:02097400AE07CC
:10097600E4FDEE30E704D2918002C291120003D268
:0E09860090EE25E0FE120003C2900DBD08E4C5
:010994002240
:1009F200E4FDD290120003EE25E0FE30910343069F
:0C0A020001C2901200030DBD08E8AF0611
:010A0E0022C5
:100AA700AC05AB07120AFB7FA01209741208D5AF79
:070AB700031208CA020B2222
:0208ED00AC0756
:1008EF00120AFB7FA01208CA120B22120AFB7FA169
:1008FF001209741208D51209F2AE07120B22AF06B5
:01090F0022C5
:1007C600D6D8C1BF3A202020202067004461746536
:1007D6003A2032300054696D653A00BBB6D3ADCAD3
:1007E600B9D3C3A3A100D6C7C4DCB5E7D7D3B3D367
:0107F6000002
:100512007BFF7A0779C6E4FD7F02120ABE7D037F64
:1005220002120995E47BE87A03F9F8AF28AE27AD09
:1005320026AC25120745EF2430FF120AD4E47BE8EB
:100542007A03F9F8AF28AE27AD26AC25120745ACE1
:1005520000AD01AE02AF03E47B64FAF9F81207457D
:10056200EF2430FF120AD4E47B64FAF9F8AF28AE24
:1005720027AD26AC25120745AC00AD01AE02AF0394
:10058200E47B0AFAF9F8120745EF2430FF120AD485
:10059200E47B0AFAF9F8AF28AE27AD26AC2512079C
:0805A20045EB2430FF020AD4EE
:100A5E007BFF7A0779D2E4FDFF120ABE7BFF7A078D
:090A6E0079DBE4FD7F01020ABE00
:1003E2008B0E8A0F89107D04E4FF120995AB0EAAC9
:1003F2000FA91012026375F00A842430FF120AD486
:10040200AB0EAA0FA91012026375F00A84E5F0245C
:1004120030FF120AD47F3A120AD4AB0EAA0FA910E7
:1004220090000112027C75F00A842430FF120AD473
:10043200AB0EAA0FA91090000112027C75F00A847B
:10044200E5F02430FF120AD47F3A120AD4AB0EAA86
:100452000FA91090000212027C75F00A842430FF6A
:10046200120AD4AB0EAA0FA91090000212027C75D8
:10047200F00A84E5F02430FF120AD47D037F0112D2
:100482000995AB11AA12A91312026375F00A84240A
:1004920030FF120AD4AB11AA12A91312026375F02B
:1004A2000A84E5F02430FF120AD47F3A120AD4AB50
:1004B20011AA12A91390000112027C75F00A842479
:1004C20030FF120AD4AB11AA12A913900001120232
:1004D2007C75F00A84E5F02430FF120AD47F3A12C8
:1004E2000AD4AB11AA12A91390000212027C75F071
:1004F2000A842430FF120AD4AB11AA12A913900065
:100502000212027C75F00A84E5F02430FF020AD45C
:100A77007BFF7A0779E1E4FDFF120ABE7BFF7A0765
:090A870079ECE4FD7F01020ABED6
:10000E00020162EC5D046005E859047003020158B8
:10001E00120123580460F6EC4860F2EC7004FDFE09
:10002E00FF22C860DB2481C85009C39860025006C5
:10003E0002015F9850CAF582E9294B4A7005AB82DE
:10004E0002014E75F0007C1A7880C3EF9BEE9AED9C
:10005E0099400DC3EF9BFFEE9AFEED99FDE842F03D
:10006E00DC23ACF0D0E0FFD0E0FED0E0FDAB822090
:10007E00E7101BEB60BAEC2CFCEF33FFEE33FEED1A
:10008E0033FD02013AE803F830E705C0F075F000E1
:10009E00EF2FFFEE33FEED33FD40B830E7C280AAFE
:1000AE0075F020800E75F010800575F0087D007ECD
:1000BE00007F003392D530D5031202DDEC334010B1
:1000CE00EF33FFEE33FEED33FDEC33FCD5F0ED22D6
:0E00DE00E5F0247EA2D513CC92E7CDCEFF2212
:1000EC00EDD2E7CD33EC3392D524814006E4FFFE0C
:1000FC00FDFC22FCE4CFCECDCC24E0501174FF806B
:10010C00EDC3CC13CCCD13CDCE13CECF13CF047007
:07011C00F030D5DE0202DD28
:10012300E9D2E7C933E833F892D5EDD2E7CD33EC22
:0701330033FC5002B2D5229B
:10013A00EC30E7100FBF000C0EBE00080DBD000426
:10014A000BEB6014A2D5EB13FCED92E7FD2274FFD2
:10015A00FCFDFEFF22E480F8A2D574FF13FC7D802B
:03016A00E480EF3F
:1005B600020698E493A3F8E493A34003F68001F2BD
:1005C60008DFF48029E493A3F85407240CC8C33346
:1005D600C4540F4420C8834004F456800146F6DF15
:1005E600E4800B0102040810204080900A45E47E56
:1005F600019360BCA3FF543F30E509541FFEE4930A
:10060600A360010ECF54C025E060A840B8E493A3D0
:10061600FAE493A3F8E493A3C8C582C8CAC583CAFB
:10062600F0A3C8C582C8CAC583CADFE9DEE780BEB3
:010A5D000098
:10016D00E709F608DFFA8046E709F208DFFA803E74
:10017D0088828C83E709F0A3DFFA8032E309F60861
:10018D00DFFA8078E309F208DFFA807088828C83C9
:10019D00E309F0A3DFFA806489828A83E0A3F6087D
:1001AD00DFFA805889828A83E0A3F208DFFA804C57
:1001BD0080D280FA80C680D4806980F2803380102E
:1001CD0080A680EA809A80A880DA80E280CA803397
:1001DD0089828A83ECFAE493A3C8C582C8CCC5830F
:1001ED00CCF0A3C8C582C8CCC583CCDFE9DEE780DF
:1001FD000D89828A83E493A3F608DFF9ECFAA9F05E
:10020D00EDFB2289828A83ECFAE0A3C8C582C8CCB3
:10021D00C583CCF0A3C8C582C8CCC583CCDFEADECC
:10022D00E880DB89828A83E493A3F208DFF980CC2E
:10023D0088F0EF60010E4E60C388F0ED2402B40427
:10024D000050B9F582EB2402B4040050AF232345CE
:06025D0082239001BD7335
:10026300BB010689828A83E0225002E722BBFE0299
:09027300E32289828A83E49322CC
:10027C00BB010CE58229F582E5833AF583E0225037
:10028C0006E92582F8E622BBFE06E92582F8E22281
:0D029C00E58229F582E5833AF583E493229B
:1002A900BB010689828A83F0225002F722BBFE0134
:0202B900F3222E
:1002BB00F8BB010DE58229F582E5833AF583E8F079
:1002CB00225006E92582C8F622BBFE05E92582C825
:0202DB00F2220D
:10074500C2D5E830E70FB2D5E4C39BFBE49AFAE4DF
:1007550099F9E498F8EC30E717B2D512077B120344
:1007650050E4C39BFBE49AFAE499F9E498F8800312
:1007750012035030D50DE4C39FFFE49EFEE49DFDBA
:04078500E49CFC22D2
:0E02DD00C3E49FFFE49EFEE49DFDE49CFC2232
:1002EB00EB9FF5F0EA9E42F0E99D42F0EC6480C88A
:0602FB0064809845F0222A
:10030100E8600FEFC333FFEE33FEED33FDEC33FC5A
:03031100D8F122FE
:1003140075F008758200EF2FFFEE33FECD33CDCCA0
:1003240033CCC58233C5829BED9AEC99E582984023
:100334000CF582EE9BFEED9AFDEC99FC0FD5F0D600
:10034400E4CEFBE4CDFAE4CCF9A88222B800C1B92A
:100354000059BA002DEC8BF084CFCECDFCE5F0CB68
:10036400F97818EF2FFFEE33FEED33FDEC33FCEBA1
:1003740033FB10D703994004EB99FB0FD8E5E4F95C
:10038400FA227818EF2FFFEE33FEED33FDEC33FC49
:10039400C933C910D7059BE99A4007EC9BFCE99A3D
:1003A400F90FD8E0E4C9FAE4CCFB2275F010EF2F82
:1003B400FFEE33FEED33FDCC33CCC833C810D70782
:1003C4009BEC9AE899400AED9BFDEC9AFCE899F8BD
:0E03D4000FD5F0DAE4CDFBE4CCFAE4C8F92250
:00000001FF
