:1007130028E132A254A121EA20A0602539263171B3
:05072300FFEFDFBF7FC6
:1006F50008360000000000000000012904023F0147
:0D0705002C044100000000042C0000000046
:1006B500E4FDFCC3ED9FEC9E5015E4FBFA0BBB007B
:0F06C500010AEB64784A70F50DBD00010C80E46A
:0106D4002203
:1006D5000521E521C395294003E4F5217590FFE542
:0F06E5002190072493F5B074362521F8E6F5909F
:0106F40022E3
:0A072800D2AF758901D2A9D28C224C
:1005B40075351443A007E5A054076407603E300373
:1005C40005C2037522017F017E001206B5E5A05421
:1005D4000764076038E52264017032F522E5A0540F
:1005E4000724FD601124FE600814700D7535038026
:1005F400087535028003753501D20022E522700D9D
:0D060400752201C200C202F533F534C203B5
:0106110022C6
:1002C700E535B401110532E532C394024008E4F57F
:1002D70032752904D205E5326401600302039F7574
:1002E7002904E535B40223200204740A80027464E9
:1002F7002540F540E4353FF53FD3E5409406E53F1B
:1003070094274006753F27754006E535B40324203A
:10031700020474F68002749C2540F54074FF353F53
:10032700F53FD3E540940AE53F94005006753F003A
:1003370075400AAE3FAF407C007D0A12016D7C001C
:100347007D0A12016D74132DF58274073CF583E461
:1003570093F536AE3FAF407C007D6412016D7C00A3
:100367007D0A12016D74132DF58274073CF583E441
:1003770093F537AE3FAF407C037DE812016D7C00FB
:100387007D0A12016D74132DF58274073CF583E421
:090397009354DFF5387539642236
:10069200AE3FAF40E4FCFDAB28AA27A926A825C39C
:1006A2001201D0400B0523E52394024005B2A32298
:0206B200D2A3D1
:0106B4002223
:03000300000022D8
:10055500C2A6120003D2A730A7FDE4FBC2A6AF0BCB
:10056500AE0AAD09AC0878011201E68F0B8E0A8D33
:10057500098C08D2A630A711EF2401F50BE43EF54E
:100585000AE43DF509E43CF5080BBB18CFD2A6E516
:100595000BF50BE50A6480F50AE509F509E508F5AB
:0E05A50008120003C2A6AF0BAE0AAD09AC08E7
:0105B3002225
:1004F3001205558F288E278D268C25C3E528952F29
:10050300F528E527952EF527E526952DF526E525EE
:10051300952CF525E4FFFEFDFCAB28AA27A926A808
:1005230025D31201D04021AF28AE27AD26AC25EC50
:100533001200AE7B007A8079DA7843120011120040
:10054300ECE48F288E278005E4F528F527F526F5BA
:0205530025225F
:1003A0001207281205B4E535C3940A50031202C798
:1003B000200503020461C2051204F3120692E5321D
:1003C00060030204617529047B0AFAF9F8AF28AECC
:1003D00027AD26AC2512061274132BF58274073A4A
:1003E000F583E493F536E47B0AFAF9F8AF28AE27F3
:1003F000AD26AC25120612E47B0AFAF9F8120612B1
:1004000074132BF58274073AF583E493F537E47B94
:1004100064FAF9F8AF28AE27AD26AC25120612E42F
:100420007B0AFAF9F812061274132BF58274073A54
:10043000F583E493F538E47BE87A03F9F8AF28AE66
:1004400027AD26AC25120612E47B0AFAF9F812064B
:100450001274132BF58274073AF583E49354DFF595
:07046000391206D50203A3C7
:03000B0002065694
:04065600C0E0C0D070
:10065A00758CF8758A300524E524C39464400575C1
:10066A002400D20530001C0534E534C394FA401343
:10067A00753400D2030533E533D39403400575334B
:03068A000AD2028F
:05068D00D0D0D0E032E6
:10000E00020162EC5D046005E859047003020158B8
:10001E00120123580460F6EC4860F2EC7004FDFE09
:10002E00FF22C860DB2481C85009C39860025006C5
:10003E0002015F9850CAF582E9294B4A7005AB82DE
:10004E0002014E75F0007C1A7880C3EF9BEE9AED9C
:10005E0099400DC3EF9BFFEE9AFEED99FDE842F03D
:10006E00DC23ACF0D0E0FFD0E0FED0E0FDAB822090
:10007E00E7101BEB60BAEC2CFCEF33FFEE33FEED1A
:10008E0033FD02013AE803F830E705C0F075F000E1
:10009E00EF2FFFEE33FEED33FD40B830E7C280AAFE
:1000AE0075F020800E75F010800575F0087D007ECD
:1000BE00007F003392D530D5031201C2EC334010CD
:1000CE00EF33FFEE33FEED33FDEC33FCD5F0ED22D6
:0E00DE00E5F0247EA2D513CC92E7CDCEFF2212
:1000EC00EDD2E7CD33EC3392D524814006E4FFFE0C
:1000FC00FDFC22FCE4CFCECDCC24E0501174FF806B
:10010C00EDC3CC13CCCD13CDCE13CECF13CF047007
:07011C00F030D5DE0201C244
:10012300E9D2E7C933E833F892D5EDD2E7CD33EC22
:0701330033FC5002B2D5229B
:10013A00EC30E7100FBF000C0EBE00080DBD000426
:10014A000BEB6014A2D5EB13FCED92E7FD2274FFD2
:10015A00FCFDFEFF22E480F8A2D574FF13FC7D802B
:03016A00E480EF3F
:0300000002046790
:0C046700787FE4F6D8FD7581440204AEF5
:10016D00BC000BBE0029EF8DF084FFADF022E4CC76
:10017D00F875F008EF2FFFEE33FEEC33FCEE9DEC3F
:10018D00984005FCEE9DFE0FD5F0E9E4CEFD22ED85
:10019D00F8F5F0EE8420D21CFEADF075F008EF2FCF
:1001AD00FFED33FD4007985006D5F0F222C398FDC0
:0501BD000FD5F0EA225D
:10061200C2D5E830E70FB2D5E4C39BFBE49AFAE413
:1006220099F9E498F8EC30E717B2D51206481202AD
:1006320035E4C39BFBE49AFAE499F9E498F8800361
:1006420012023530D50DE4C39FFFE49EFEE49DFD0A
:04065200E49CFC2206
:0E01C200C3E49FFFE49EFEE49DFDE49CFC224E
:1001D000EB9FF5F0EA9E42F0E99D42F0EC6480C8A6
:0601E00064809845F02246
:1001E600E8600FEFC333FFEE33FEED33FDEC33FC77
:0301F600D8F1221B
:100473000203A0E493A3F8E493A34003F68001F2FC
:1004830008DFF48029E493A3F85407240CC8C3338A
:10049300C4540F4420C8834004F456800146F6DF59
:1004A300E4800B01020408102040809006F5E47EEE
:1004B300019360BCA3FF543F30E509541FFEE4934E
:1004C300A360010ECF54C025E060A840B8E493A315
:1004D300FAE493A3F8E493A3C8C582C8CAC583CA40
:1004E300F0A3C8C582C8CAC583CADFE9DEE780BEF8
:0107120000E6
:1001F90075F008758200EF2FFFEE33FECD33CDCCBD
:1002090033CCC58233C5829BED9AEC99E58298403F
:100219000CF582EE9BFEED9AFDEC99FC0FD5F0D61C
:10022900E4CEFBE4CDFAE4CCF9A88222B800C1B946
:100239000059BA002DEC8BF084CFCECDFCE5F0CB84
:10024900F97818EF2FFFEE33FEED33FDEC33FCEBBD
:1002590033FB10D703994004EB99FB0FD8E5E4F978
:10026900FA227818EF2FFFEE33FEED33FDEC33FC65
:10027900C933C910D7059BE99A4007EC9BFCE99A59
:10028900F90FD8E0E4C9FAE4CCFB2275F010EF2F9E
:10029900FFEE33FEED33FDCC33CCC833C810D7079E
:1002A9009BEC9AE899400AED9BFDEC9AFCE899F8D9
:0E02B9000FD5F0DAE4CDFBE4CCFAE4C8F9226C
:00000001FF
